{
  "_format": "hh-sol-artifact-1",
  "contractName": "Roles",
  "sourceName": "contracts/Roles.sol",
  "abi": [
    {
      "inputs": [
        {
          "internalType": "address",
          "name": "_owner",
          "type": "address"
        },
        {
          "internalType": "address",
          "name": "_avatar",
          "type": "address"
        },
        {
          "internalType": "address",
          "name": "_target",
          "type": "address"
        }
      ],
      "stateMutability": "nonpayable",
      "type": "constructor"
    },
    {
      "inputs": [],
      "name": "ArraysDifferentLength",
      "type": "error"
    },
    {
      "inputs": [],
      "name": "ModuleTransactionFailed",
      "type": "error"
    },
    {
      "anonymous": false,
      "inputs": [
        {
          "indexed": false,
          "internalType": "address",
          "name": "module",
          "type": "address"
        },
        {
          "indexed": false,
          "internalType": "uint16[]",
          "name": "roles",
          "type": "uint16[]"
        },
        {
          "indexed": false,
          "internalType": "bool[]",
          "name": "memberOf",
          "type": "bool[]"
        }
      ],
      "name": "AssignRoles",
      "type": "event"
    },
    {
      "anonymous": false,
      "inputs": [
        {
          "indexed": true,
          "internalType": "address",
          "name": "previousAvatar",
          "type": "address"
        },
        {
          "indexed": true,
          "internalType": "address",
          "name": "newAvatar",
          "type": "address"
        }
      ],
      "name": "AvatarSet",
      "type": "event"
    },
    {
      "anonymous": false,
      "inputs": [
        {
          "indexed": false,
          "internalType": "address",
          "name": "guard",
          "type": "address"
        }
      ],
      "name": "ChangedGuard",
      "type": "event"
    },
    {
      "anonymous": false,
      "inputs": [
        {
          "indexed": false,
          "internalType": "address",
          "name": "module",
          "type": "address"
        }
      ],
      "name": "DisabledModule",
      "type": "event"
    },
    {
      "anonymous": false,
      "inputs": [
        {
          "indexed": false,
          "internalType": "address",
          "name": "module",
          "type": "address"
        }
      ],
      "name": "EnabledModule",
      "type": "event"
    },
    {
      "anonymous": false,
      "inputs": [
        {
          "indexed": false,
          "internalType": "uint8",
          "name": "version",
          "type": "uint8"
        }
      ],
      "name": "Initialized",
      "type": "event"
    },
    {
      "anonymous": false,
      "inputs": [
        {
          "indexed": true,
          "internalType": "address",
          "name": "previousOwner",
          "type": "address"
        },
        {
          "indexed": true,
          "internalType": "address",
          "name": "newOwner",
          "type": "address"
        }
      ],
      "name": "OwnershipTransferred",
      "type": "event"
    },
    {
      "anonymous": false,
      "inputs": [
        {
          "indexed": true,
          "internalType": "address",
          "name": "initiator",
          "type": "address"
        },
        {
          "indexed": true,
          "internalType": "address",
          "name": "owner",
          "type": "address"
        },
        {
          "indexed": true,
          "internalType": "address",
          "name": "avatar",
          "type": "address"
        },
        {
          "indexed": false,
          "internalType": "address",
          "name": "target",
          "type": "address"
        }
      ],
      "name": "RolesModSetup",
      "type": "event"
    },
    {
      "anonymous": false,
      "inputs": [
        {
          "indexed": false,
          "internalType": "address",
          "name": "module",
          "type": "address"
        },
        {
          "indexed": false,
          "internalType": "uint16",
          "name": "defaultRole",
          "type": "uint16"
        }
      ],
      "name": "SetDefaultRole",
      "type": "event"
    },
    {
      "anonymous": false,
      "inputs": [
        {
          "indexed": false,
          "internalType": "address",
          "name": "multisendAddress",
          "type": "address"
        }
      ],
      "name": "SetMultisendAddress",
      "type": "event"
    },
    {
      "anonymous": false,
      "inputs": [
        {
          "indexed": true,
          "internalType": "address",
          "name": "previousTarget",
          "type": "address"
        },
        {
          "indexed": true,
          "internalType": "address",
          "name": "newTarget",
          "type": "address"
        }
      ],
      "name": "TargetSet",
      "type": "event"
    },
    {
      "inputs": [
        {
          "internalType": "uint16",
          "name": "role",
          "type": "uint16"
        },
        {
          "internalType": "address",
          "name": "targetAddress",
          "type": "address"
        },
        {
          "internalType": "enum ExecutionOptions",
          "name": "options",
          "type": "uint8"
        }
      ],
      "name": "allowTarget",
      "outputs": [],
      "stateMutability": "nonpayable",
      "type": "function"
    },
    {
      "inputs": [
        {
          "internalType": "address",
          "name": "module",
          "type": "address"
        },
        {
          "internalType": "uint16[]",
          "name": "_roles",
          "type": "uint16[]"
        },
        {
          "internalType": "bool[]",
          "name": "memberOf",
          "type": "bool[]"
        }
      ],
      "name": "assignRoles",
      "outputs": [],
      "stateMutability": "nonpayable",
      "type": "function"
    },
    {
      "inputs": [],
      "name": "avatar",
      "outputs": [
        {
          "internalType": "address",
          "name": "",
          "type": "address"
        }
      ],
      "stateMutability": "view",
      "type": "function"
    },
    {
      "inputs": [
        {
          "internalType": "address",
          "name": "",
          "type": "address"
        }
      ],
      "name": "defaultRoles",
      "outputs": [
        {
          "internalType": "uint16",
          "name": "",
          "type": "uint16"
        }
      ],
      "stateMutability": "view",
      "type": "function"
    },
    {
      "inputs": [
        {
          "internalType": "address",
          "name": "prevModule",
          "type": "address"
        },
        {
          "internalType": "address",
          "name": "module",
          "type": "address"
        }
      ],
      "name": "disableModule",
      "outputs": [],
      "stateMutability": "nonpayable",
      "type": "function"
    },
    {
      "inputs": [
        {
          "internalType": "address",
          "name": "module",
          "type": "address"
        }
      ],
      "name": "enableModule",
      "outputs": [],
      "stateMutability": "nonpayable",
      "type": "function"
    },
    {
      "inputs": [
        {
          "internalType": "address",
          "name": "to",
          "type": "address"
        },
        {
          "internalType": "uint256",
          "name": "value",
          "type": "uint256"
        },
        {
          "internalType": "bytes",
          "name": "data",
          "type": "bytes"
        },
        {
          "internalType": "enum Enum.Operation",
          "name": "operation",
          "type": "uint8"
        }
      ],
      "name": "execTransactionFromModule",
      "outputs": [
        {
          "internalType": "bool",
          "name": "success",
          "type": "bool"
        }
      ],
      "stateMutability": "nonpayable",
      "type": "function"
    },
    {
      "inputs": [
        {
          "internalType": "address",
          "name": "to",
          "type": "address"
        },
        {
          "internalType": "uint256",
          "name": "value",
          "type": "uint256"
        },
        {
          "internalType": "bytes",
          "name": "data",
          "type": "bytes"
        },
        {
          "internalType": "enum Enum.Operation",
          "name": "operation",
          "type": "uint8"
        }
      ],
      "name": "execTransactionFromModuleReturnData",
      "outputs": [
        {
          "internalType": "bool",
          "name": "",
          "type": "bool"
        },
        {
          "internalType": "bytes",
          "name": "",
          "type": "bytes"
        }
      ],
      "stateMutability": "nonpayable",
      "type": "function"
    },
    {
      "inputs": [
        {
          "internalType": "address",
          "name": "to",
          "type": "address"
        },
        {
          "internalType": "uint256",
          "name": "value",
          "type": "uint256"
        },
        {
          "internalType": "bytes",
          "name": "data",
          "type": "bytes"
        },
        {
          "internalType": "enum Enum.Operation",
          "name": "operation",
          "type": "uint8"
        },
        {
          "internalType": "uint16",
          "name": "role",
          "type": "uint16"
        },
        {
          "internalType": "bool",
          "name": "shouldRevert",
          "type": "bool"
        }
      ],
      "name": "execTransactionWithRole",
      "outputs": [
        {
          "internalType": "bool",
          "name": "success",
          "type": "bool"
        }
      ],
      "stateMutability": "nonpayable",
      "type": "function"
    },
    {
      "inputs": [
        {
          "internalType": "address",
          "name": "to",
          "type": "address"
        },
        {
          "internalType": "uint256",
          "name": "value",
          "type": "uint256"
        },
        {
          "internalType": "bytes",
          "name": "data",
          "type": "bytes"
        },
        {
          "internalType": "enum Enum.Operation",
          "name": "operation",
          "type": "uint8"
        },
        {
          "internalType": "uint16",
          "name": "role",
          "type": "uint16"
        },
        {
          "internalType": "bool",
          "name": "shouldRevert",
          "type": "bool"
        }
      ],
      "name": "execTransactionWithRoleReturnData",
      "outputs": [
        {
          "internalType": "bool",
          "name": "success",
          "type": "bool"
        },
        {
          "internalType": "bytes",
          "name": "returnData",
          "type": "bytes"
        }
      ],
      "stateMutability": "nonpayable",
      "type": "function"
    },
    {
      "inputs": [],
      "name": "getGuard",
      "outputs": [
        {
          "internalType": "address",
          "name": "_guard",
          "type": "address"
        }
      ],
      "stateMutability": "view",
      "type": "function"
    },
    {
      "inputs": [
        {
          "internalType": "address",
          "name": "start",
          "type": "address"
        },
        {
          "internalType": "uint256",
          "name": "pageSize",
          "type": "uint256"
        }
      ],
      "name": "getModulesPaginated",
      "outputs": [
        {
          "internalType": "address[]",
          "name": "array",
          "type": "address[]"
        },
        {
          "internalType": "address",
          "name": "next",
          "type": "address"
        }
      ],
      "stateMutability": "view",
      "type": "function"
    },
    {
      "inputs": [],
      "name": "guard",
      "outputs": [
        {
          "internalType": "address",
          "name": "",
          "type": "address"
        }
      ],
      "stateMutability": "view",
      "type": "function"
    },
    {
      "inputs": [
        {
          "internalType": "address",
          "name": "_module",
          "type": "address"
        }
      ],
      "name": "isModuleEnabled",
      "outputs": [
        {
          "internalType": "bool",
          "name": "",
          "type": "bool"
        }
      ],
      "stateMutability": "view",
      "type": "function"
    },
    {
      "inputs": [],
      "name": "multisend",
      "outputs": [
        {
          "internalType": "address",
          "name": "",
          "type": "address"
        }
      ],
      "stateMutability": "view",
      "type": "function"
    },
    {
      "inputs": [],
      "name": "owner",
      "outputs": [
        {
          "internalType": "address",
          "name": "",
          "type": "address"
        }
      ],
      "stateMutability": "view",
      "type": "function"
    },
    {
      "inputs": [],
      "name": "renounceOwnership",
      "outputs": [],
      "stateMutability": "nonpayable",
      "type": "function"
    },
    {
      "inputs": [
        {
          "internalType": "uint16",
          "name": "role",
          "type": "uint16"
        },
        {
          "internalType": "address",
          "name": "targetAddress",
          "type": "address"
        }
      ],
      "name": "revokeTarget",
      "outputs": [],
      "stateMutability": "nonpayable",
      "type": "function"
    },
    {
      "inputs": [
        {
          "internalType": "uint16",
          "name": "role",
          "type": "uint16"
        },
        {
          "internalType": "address",
          "name": "targetAddress",
          "type": "address"
        },
        {
          "internalType": "bytes4",
          "name": "functionSig",
          "type": "bytes4"
        },
        {
          "internalType": "enum ExecutionOptions",
          "name": "options",
          "type": "uint8"
        }
      ],
      "name": "scopeAllowFunction",
      "outputs": [],
      "stateMutability": "nonpayable",
      "type": "function"
    },
    {
      "inputs": [
        {
          "internalType": "uint16",
          "name": "role",
          "type": "uint16"
        },
        {
          "internalType": "address",
          "name": "targetAddress",
          "type": "address"
        },
        {
          "internalType": "bytes4",
          "name": "functionSig",
          "type": "bytes4"
        },
        {
          "internalType": "bool[]",
          "name": "isParamScoped",
          "type": "bool[]"
        },
        {
          "internalType": "enum ParameterType[]",
          "name": "paramType",
          "type": "uint8[]"
        },
        {
          "internalType": "enum Comparison[]",
          "name": "paramComp",
          "type": "uint8[]"
        },
        {
          "internalType": "bytes[]",
          "name": "compValue",
          "type": "bytes[]"
        },
        {
          "internalType": "enum ExecutionOptions",
          "name": "options",
          "type": "uint8"
        }
      ],
      "name": "scopeFunction",
      "outputs": [],
      "stateMutability": "nonpayable",
      "type": "function"
    },
    {
      "inputs": [
        {
          "internalType": "uint16",
          "name": "role",
          "type": "uint16"
        },
        {
          "internalType": "address",
          "name": "targetAddress",
          "type": "address"
        },
        {
          "internalType": "bytes4",
          "name": "functionSig",
          "type": "bytes4"
        },
        {
          "internalType": "enum ExecutionOptions",
          "name": "options",
          "type": "uint8"
        }
      ],
      "name": "scopeFunctionExecutionOptions",
      "outputs": [],
      "stateMutability": "nonpayable",
      "type": "function"
    },
    {
      "inputs": [
        {
          "internalType": "uint16",
          "name": "role",
          "type": "uint16"
        },
        {
          "internalType": "address",
          "name": "targetAddress",
          "type": "address"
        },
        {
          "internalType": "bytes4",
          "name": "functionSig",
          "type": "bytes4"
        },
        {
          "internalType": "uint256",
          "name": "paramIndex",
          "type": "uint256"
        },
        {
          "internalType": "enum ParameterType",
          "name": "paramType",
          "type": "uint8"
        },
        {
          "internalType": "enum Comparison",
          "name": "paramComp",
          "type": "uint8"
        },
        {
          "internalType": "bytes",
          "name": "compValue",
          "type": "bytes"
        }
      ],
      "name": "scopeParameter",
      "outputs": [],
      "stateMutability": "nonpayable",
      "type": "function"
    },
    {
      "inputs": [
        {
          "internalType": "uint16",
          "name": "role",
          "type": "uint16"
        },
        {
          "internalType": "address",
          "name": "targetAddress",
          "type": "address"
        },
        {
          "internalType": "bytes4",
          "name": "functionSig",
          "type": "bytes4"
        },
        {
          "internalType": "uint256",
          "name": "paramIndex",
          "type": "uint256"
        },
        {
          "internalType": "enum ParameterType",
          "name": "paramType",
          "type": "uint8"
        },
        {
          "internalType": "bytes[]",
          "name": "compValues",
          "type": "bytes[]"
        }
      ],
      "name": "scopeParameterAsOneOf",
      "outputs": [],
      "stateMutability": "nonpayable",
      "type": "function"
    },
    {
      "inputs": [
        {
          "internalType": "uint16",
          "name": "role",
          "type": "uint16"
        },
        {
          "internalType": "address",
          "name": "targetAddress",
          "type": "address"
        },
        {
          "internalType": "bytes4",
          "name": "functionSig",
          "type": "bytes4"
        }
      ],
      "name": "scopeRevokeFunction",
      "outputs": [],
      "stateMutability": "nonpayable",
      "type": "function"
    },
    {
      "inputs": [
        {
          "internalType": "uint16",
          "name": "role",
          "type": "uint16"
        },
        {
          "internalType": "address",
          "name": "targetAddress",
          "type": "address"
        }
      ],
      "name": "scopeTarget",
      "outputs": [],
      "stateMutability": "nonpayable",
      "type": "function"
    },
    {
      "inputs": [
        {
          "internalType": "address",
          "name": "_avatar",
          "type": "address"
        }
      ],
      "name": "setAvatar",
      "outputs": [],
      "stateMutability": "nonpayable",
      "type": "function"
    },
    {
      "inputs": [
        {
          "internalType": "address",
          "name": "module",
          "type": "address"
        },
        {
          "internalType": "uint16",
          "name": "role",
          "type": "uint16"
        }
      ],
      "name": "setDefaultRole",
      "outputs": [],
      "stateMutability": "nonpayable",
      "type": "function"
    },
    {
      "inputs": [
        {
          "internalType": "address",
          "name": "_guard",
          "type": "address"
        }
      ],
      "name": "setGuard",
      "outputs": [],
      "stateMutability": "nonpayable",
      "type": "function"
    },
    {
      "inputs": [
        {
          "internalType": "address",
          "name": "_multisend",
          "type": "address"
        }
      ],
      "name": "setMultisend",
      "outputs": [],
      "stateMutability": "nonpayable",
      "type": "function"
    },
    {
      "inputs": [
        {
          "internalType": "address",
          "name": "_target",
          "type": "address"
        }
      ],
      "name": "setTarget",
      "outputs": [],
      "stateMutability": "nonpayable",
      "type": "function"
    },
    {
      "inputs": [
        {
          "internalType": "bytes",
          "name": "initParams",
          "type": "bytes"
        }
      ],
      "name": "setUp",
      "outputs": [],
      "stateMutability": "nonpayable",
      "type": "function"
    },
    {
      "inputs": [],
      "name": "target",
      "outputs": [
        {
          "internalType": "address",
          "name": "",
          "type": "address"
        }
      ],
      "stateMutability": "view",
      "type": "function"
    },
    {
      "inputs": [
        {
          "internalType": "address",
          "name": "newOwner",
          "type": "address"
        }
      ],
      "name": "transferOwnership",
      "outputs": [],
      "stateMutability": "nonpayable",
      "type": "function"
    },
    {
      "inputs": [
        {
          "internalType": "uint16",
          "name": "role",
          "type": "uint16"
        },
        {
          "internalType": "address",
          "name": "targetAddress",
          "type": "address"
        },
        {
          "internalType": "bytes4",
          "name": "functionSig",
          "type": "bytes4"
        },
        {
          "internalType": "uint8",
          "name": "paramIndex",
          "type": "uint8"
        }
      ],
      "name": "unscopeParameter",
      "outputs": [],
      "stateMutability": "nonpayable",
      "type": "function"
    }
  ],
  "bytecode": "0x60806040523480156200001157600080fd5b5060405162005e3f38038062005e3f833981810160405281019062000037919062000678565b6000838383604051602001620000509392919062000777565b604051602081830303815290604052905062000072816200007c60201b60201c565b50505050620009a2565b6000806000838060200190518101906200009791906200061c565b925092509250620000ad620001d460201b60201c565b81606660006101000a81548173ffffffffffffffffffffffffffffffffffffffff021916908373ffffffffffffffffffffffffffffffffffffffff16021790555080606760006101000a81548173ffffffffffffffffffffffffffffffffffffffff021916908373ffffffffffffffffffffffffffffffffffffffff16021790555062000140836200023860201b60201c565b62000150620002cf60201b60201c565b8173ffffffffffffffffffffffffffffffffffffffff168373ffffffffffffffffffffffffffffffffffffffff163373ffffffffffffffffffffffffffffffffffffffff167f34d3b96a088381c6843a1f9d94d251afa88f83cc7a0d17fc23a7057506a3fc6d84604051620001c691906200075a565b60405180910390a450505050565b600060019054906101000a900460ff1662000226576040517f08c379a00000000000000000000000000000000000000000000000000000000081526004016200021d90620007f8565b60405180910390fd5b62000236620003f160201b60201c565b565b620002486200046560201b60201c565b600073ffffffffffffffffffffffffffffffffffffffff168173ffffffffffffffffffffffffffffffffffffffff161415620002bb576040517f08c379a0000000000000000000000000000000000000000000000000000000008152600401620002b290620007b4565b60405180910390fd5b620002cc81620004f660201b60201c565b50565b600073ffffffffffffffffffffffffffffffffffffffff1660686000600173ffffffffffffffffffffffffffffffffffffffff1673ffffffffffffffffffffffffffffffffffffffff16815260200190815260200160002060009054906101000a900473ffffffffffffffffffffffffffffffffffffffff1673ffffffffffffffffffffffffffffffffffffffff16146200036f576200036e62000873565b5b600160686000600173ffffffffffffffffffffffffffffffffffffffff1673ffffffffffffffffffffffffffffffffffffffff16815260200190815260200160002060006101000a81548173ffffffffffffffffffffffffffffffffffffffff021916908373ffffffffffffffffffffffffffffffffffffffff160217905550565b600060019054906101000a900460ff1662000443576040517f08c379a00000000000000000000000000000000000000000000000000000000081526004016200043a90620007f8565b60405180910390fd5b6200046362000457620005bc60201b60201c565b620004f660201b60201c565b565b62000475620005bc60201b60201c565b73ffffffffffffffffffffffffffffffffffffffff166200049b620005c460201b60201c565b73ffffffffffffffffffffffffffffffffffffffff1614620004f4576040517f08c379a0000000000000000000000000000000000000000000000000000000008152600401620004eb90620007d6565b60405180910390fd5b565b6000603360009054906101000a900473ffffffffffffffffffffffffffffffffffffffff16905081603360006101000a81548173ffffffffffffffffffffffffffffffffffffffff021916908373ffffffffffffffffffffffffffffffffffffffff1602179055508173ffffffffffffffffffffffffffffffffffffffff168173ffffffffffffffffffffffffffffffffffffffff167f8be0079c531659141344cd1fd0a4f28419497f9722a3daafe3b4186f6b6457e060405160405180910390a35050565b600033905090565b6000603360009054906101000a900473ffffffffffffffffffffffffffffffffffffffff16905090565b600081519050620005ff816200096e565b92915050565b600081519050620006168162000988565b92915050565b600080600060608486031215620006385762000637620008a2565b5b6000620006488682870162000605565b93505060206200065b8682870162000605565b92505060406200066e8682870162000605565b9150509250925092565b600080600060608486031215620006945762000693620008a2565b5b6000620006a486828701620005ee565b9350506020620006b786828701620005ee565b9250506040620006ca86828701620005ee565b9150509250925092565b620006df816200082b565b82525050565b6000620006f46026836200081a565b91506200070182620008a7565b604082019050919050565b60006200071b6020836200081a565b91506200072882620008f6565b602082019050919050565b600062000742602b836200081a565b91506200074f826200091f565b604082019050919050565b6000602082019050620007716000830184620006d4565b92915050565b60006060820190506200078e6000830186620006d4565b6200079d6020830185620006d4565b620007ac6040830184620006d4565b949350505050565b60006020820190508181036000830152620007cf81620006e5565b9050919050565b60006020820190508181036000830152620007f1816200070c565b9050919050565b60006020820190508181036000830152620008138162000733565b9050919050565b600082825260208201905092915050565b6000620008388262000853565b9050919050565b60006200084c8262000853565b9050919050565b600073ffffffffffffffffffffffffffffffffffffffff82169050919050565b7f4e487b7100000000000000000000000000000000000000000000000000000000600052600160045260246000fd5b600080fd5b7f4f776e61626c653a206e6577206f776e657220697320746865207a65726f206160008201527f6464726573730000000000000000000000000000000000000000000000000000602082015250565b7f4f776e61626c653a2063616c6c6572206973206e6f7420746865206f776e6572600082015250565b7f496e697469616c697a61626c653a20636f6e7472616374206973206e6f74206960008201527f6e697469616c697a696e67000000000000000000000000000000000000000000602082015250565b62000979816200082b565b81146200098557600080fd5b50565b62000993816200083f565b81146200099f57600080fd5b50565b61548d80620009b26000396000f3fe608060405234801561001057600080fd5b50600436106102065760003560e01c8063610b59251161011a578063a4f9edbf116100ad578063cc2f84521161007c578063cc2f8452146105a9578063d4b83992146105da578063e009cfde146105f8578063e19a9dd914610614578063f2fde38b1461063057610206565b8063a4f9edbf14610522578063a6edf38f1461053e578063b0c199121461055a578063c91063891461058b57610206565b80637ceab3b1116100e95780637ceab3b1146104ae5780638b95eccd146104cc5780638da5cb5b146104e8578063939337721461050657610206565b8063610b59251461043c5780636928e74b14610458578063715018a614610488578063776d1a011461049257610206565b80632e506a481161019d578063468721a71161016c578063468721a71461038557806351fa1d73146103b55780635229073f146103d15780635aef7de6146104025780635e8266951461042057610206565b80632e506a48146103155780632fcf52d11461033157806333a0480c1461034d5780633c1952b81461036957610206565b80632933ef1c116101d95780632933ef1c1461027b578063294402cc146102975780632d3c2547146102b55780632d9ad53d146102e557610206565b8063086cfca81461020b5780630de729c714610227578063102b7fe61461024357806315b77d3f1461025f575b600080fd5b610225600480360381019061022091906134b2565b61064c565b005b610241600480360381019061023c9190613cf0565b61071a565b005b61025d60048036038101906102589190613607565b6107ae565b005b61027960048036038101906102749190613ab1565b61084d565b005b6102956004803603810190610290919061392a565b6108e4565b005b61029f610978565b6040516102ac919061446a565b60405180910390f35b6102cf60048036038101906102ca91906134b2565b61099e565b6040516102dc9190614b3a565b60405180910390f35b6102ff60048036038101906102fa91906134b2565b6109bf565b60405161030c919061462c565b60405180910390f35b61032f600480360381019061032a9190613c89565b610a91565b005b61034b60048036038101906103469190613ab1565b610b28565b005b6103676004803603810190610362919061397d565b610bbf565b005b610383600480360381019061037e9190613bc7565b610c6b565b005b61039f600480360381019061039a9190613687565b610d0e565b6040516103ac919061462c565b60405180910390f35b6103cf60048036038101906103ca91906138ea565b610f35565b005b6103eb60048036038101906103e69190613687565b610fc6565b6040516103f9929190614647565b60405180910390f35b61040a6111f3565b604051610417919061446a565b60405180910390f35b61043a600480360381019061043591906138ea565b611219565b005b610456600480360381019061045191906134b2565b6112aa565b005b610472600480360381019061046d919061370f565b6115c0565b60405161047f919061462c565b60405180910390f35b6104906117de565b005b6104ac60048036038101906104a791906134b2565b6117f2565b005b6104b66118c0565b6040516104c3919061446a565b60405180910390f35b6104e660048036038101906104e191906134b2565b6118e6565b005b6104f061198b565b6040516104fd919061446a565b60405180910390f35b610520600480360381019061051b9190613b18565b6119b5565b005b61053c60048036038101906105379190613874565b611a55565b005b61055860048036038101906105539190613572565b611b91565b005b610574600480360381019061056f919061370f565b611d24565b604051610582929190614647565b60405180910390f35b610593611f4c565b6040516105a0919061446a565b60405180910390f35b6105c360048036038101906105be9190613647565b611f76565b6040516105d19291906145fc565b60405180910390f35b6105e2612177565b6040516105ef919061446a565b60405180910390f35b610612600480360381019061060d9190613532565b61219d565b005b61062e600480360381019061062991906134b2565b6124b2565b005b61064a600480360381019061064591906134b2565b612674565b005b6106546126f8565b6000606660009054906101000a900473ffffffffffffffffffffffffffffffffffffffff16905081606660006101000a81548173ffffffffffffffffffffffffffffffffffffffff021916908373ffffffffffffffffffffffffffffffffffffffff1602179055508173ffffffffffffffffffffffffffffffffffffffff168173ffffffffffffffffffffffffffffffffffffffff167f52ae88b092de36f87fb43fe794eb1381023b9c1bce563a871154022c63dce34260405160405180910390a35050565b6107226126f8565b73__$26c8ee7675adcd4387514ebc7646e15ffa$__63a2f6f6d0606b60008661ffff1661ffff1681526020019081526020016000208585856040518563ffffffff1660e01b81526004016107799493929190614af5565b60006040518083038186803b15801561079157600080fd5b505af41580156107a5573d6000803e3d6000fd5b50505050505050565b6107b66126f8565b80606a60008473ffffffffffffffffffffffffffffffffffffffff1673ffffffffffffffffffffffffffffffffffffffff16815260200190815260200160002060006101000a81548161ffff021916908361ffff1602179055507f197e61bb67ba4b0f657afcb5d2dbed385d50b697c51090f466cdbcc4c30a21ce82826040516108419291906144ce565b60405180910390a15050565b6108556126f8565b73__$26c8ee7675adcd4387514ebc7646e15ffa$__63163592dd606b60008761ffff1661ffff168152602001908152602001600020868686866040518663ffffffff1660e01b81526004016108ae959493929190614950565b60006040518083038186803b1580156108c657600080fd5b505af41580156108da573d6000803e3d6000fd5b5050505050505050565b6108ec6126f8565b73__$26c8ee7675adcd4387514ebc7646e15ffa$__6377cff804606b60008661ffff1661ffff1681526020019081526020016000208585856040518563ffffffff1660e01b8152600401610943949392919061485c565b60006040518083038186803b15801561095b57600080fd5b505af415801561096f573d6000803e3d6000fd5b50505050505050565b606960009054906101000a900473ffffffffffffffffffffffffffffffffffffffff1681565b606a6020528060005260406000206000915054906101000a900461ffff1681565b60008173ffffffffffffffffffffffffffffffffffffffff16600173ffffffffffffffffffffffffffffffffffffffff1614158015610a8a5750600073ffffffffffffffffffffffffffffffffffffffff16606860008473ffffffffffffffffffffffffffffffffffffffff1673ffffffffffffffffffffffffffffffffffffffff16815260200190815260200160002060009054906101000a900473ffffffffffffffffffffffffffffffffffffffff1673ffffffffffffffffffffffffffffffffffffffff1614155b9050919050565b610a996126f8565b73__$26c8ee7675adcd4387514ebc7646e15ffa$__633c5a24e2606b60008761ffff1661ffff168152602001908152602001600020868686866040518663ffffffff1660e01b8152600401610af2959493929190614aa2565b60006040518083038186803b158015610b0a57600080fd5b505af4158015610b1e573d6000803e3d6000fd5b5050505050505050565b610b306126f8565b73__$26c8ee7675adcd4387514ebc7646e15ffa$__635ebbaa68606b60008761ffff1661ffff168152602001908152602001600020868686866040518663ffffffff1660e01b8152600401610b89959493929190614950565b60006040518083038186803b158015610ba157600080fd5b505af4158015610bb5573d6000803e3d6000fd5b5050505050505050565b610bc76126f8565b73__$26c8ee7675adcd4387514ebc7646e15ffa$__632af6aecb606b60008e61ffff1661ffff1681526020019081526020016000208d8d8d8d8d8d8d8d8d8d8d6040518d63ffffffff1660e01b8152600401610c2e9c9b9a999897969594939291906148a1565b60006040518083038186803b158015610c4657600080fd5b505af4158015610c5a573d6000803e3d6000fd5b505050505050505050505050505050565b610c736126f8565b73__$26c8ee7675adcd4387514ebc7646e15ffa$__63edf909e3606b60008b61ffff1661ffff1681526020019081526020016000208a8a8a8a8a8a8a8a6040518a63ffffffff1660e01b8152600401610cd499989796959493929190614a1b565b60006040518083038186803b158015610cec57600080fd5b505af4158015610d00573d6000803e3d6000fd5b505050505050505050505050565b60008073ffffffffffffffffffffffffffffffffffffffff16606860003373ffffffffffffffffffffffffffffffffffffffff1673ffffffffffffffffffffffffffffffffffffffff16815260200190815260200160002060009054906101000a900473ffffffffffffffffffffffffffffffffffffffff1673ffffffffffffffffffffffffffffffffffffffff161415610dde576040517f08c379a0000000000000000000000000000000000000000000000000000000008152600401610dd59061471b565b60405180910390fd5b73__$26c8ee7675adcd4387514ebc7646e15ffa$__63db50e575606b6000606a60003373ffffffffffffffffffffffffffffffffffffffff1673ffffffffffffffffffffffffffffffffffffffff16815260200190815260200160002060009054906101000a900461ffff1661ffff1661ffff168152602001908152602001600020606960009054906101000a900473ffffffffffffffffffffffffffffffffffffffff1689898989896040518863ffffffff1660e01b8152600401610eaa97969594939291906147bb565b60006040518083038186803b158015610ec257600080fd5b505af4158015610ed6573d6000803e3d6000fd5b50505050610f2a868686868080601f016020809104026020016040519081016040528093929190818152602001838380828437600081840152601f19601f8201169050808301925050505050505085612776565b905095945050505050565b610f3d6126f8565b73__$26c8ee7675adcd4387514ebc7646e15ffa$__63cfe4317a606b60008561ffff1661ffff16815260200190815260200160002084846040518463ffffffff1660e01b8152600401610f9293929190614825565b60006040518083038186803b158015610faa57600080fd5b505af4158015610fbe573d6000803e3d6000fd5b505050505050565b60006060600073ffffffffffffffffffffffffffffffffffffffff16606860003373ffffffffffffffffffffffffffffffffffffffff1673ffffffffffffffffffffffffffffffffffffffff16815260200190815260200160002060009054906101000a900473ffffffffffffffffffffffffffffffffffffffff1673ffffffffffffffffffffffffffffffffffffffff161415611099576040517f08c379a00000000000000000000000000000000000000000000000000000000081526004016110909061471b565b60405180910390fd5b73__$26c8ee7675adcd4387514ebc7646e15ffa$__63db50e575606b6000606a60003373ffffffffffffffffffffffffffffffffffffffff1673ffffffffffffffffffffffffffffffffffffffff16815260200190815260200160002060009054906101000a900461ffff1661ffff1661ffff168152602001908152602001600020606960009054906101000a900473ffffffffffffffffffffffffffffffffffffffff168a8a8a8a8a6040518863ffffffff1660e01b815260040161116597969594939291906147bb565b60006040518083038186803b15801561117d57600080fd5b505af4158015611191573d6000803e3d6000fd5b505050506111e5878787878080601f016020809104026020016040519081016040528093929190818152602001838380828437600081840152601f19601f8201169050808301925050505050505086612a6b565b915091509550959350505050565b606660009054906101000a900473ffffffffffffffffffffffffffffffffffffffff1681565b6112216126f8565b73__$26c8ee7675adcd4387514ebc7646e15ffa$__63ee54ca53606b60008561ffff1661ffff16815260200190815260200160002084846040518463ffffffff1660e01b815260040161127693929190614825565b60006040518083038186803b15801561128e57600080fd5b505af41580156112a2573d6000803e3d6000fd5b505050505050565b6112b26126f8565b600073ffffffffffffffffffffffffffffffffffffffff168173ffffffffffffffffffffffffffffffffffffffff161415801561131c5750600173ffffffffffffffffffffffffffffffffffffffff168173ffffffffffffffffffffffffffffffffffffffff1614155b61135b576040517f08c379a00000000000000000000000000000000000000000000000000000000081526004016113529061479b565b60405180910390fd5b600073ffffffffffffffffffffffffffffffffffffffff16606860008373ffffffffffffffffffffffffffffffffffffffff1673ffffffffffffffffffffffffffffffffffffffff16815260200190815260200160002060009054906101000a900473ffffffffffffffffffffffffffffffffffffffff1673ffffffffffffffffffffffffffffffffffffffff1614611429576040517f08c379a00000000000000000000000000000000000000000000000000000000081526004016114209061475b565b60405180910390fd5b60686000600173ffffffffffffffffffffffffffffffffffffffff1673ffffffffffffffffffffffffffffffffffffffff16815260200190815260200160002060009054906101000a900473ffffffffffffffffffffffffffffffffffffffff16606860008373ffffffffffffffffffffffffffffffffffffffff1673ffffffffffffffffffffffffffffffffffffffff16815260200190815260200160002060006101000a81548173ffffffffffffffffffffffffffffffffffffffff021916908373ffffffffffffffffffffffffffffffffffffffff1602179055508060686000600173ffffffffffffffffffffffffffffffffffffffff1673ffffffffffffffffffffffffffffffffffffffff16815260200190815260200160002060006101000a81548173ffffffffffffffffffffffffffffffffffffffff021916908373ffffffffffffffffffffffffffffffffffffffff1602179055507fecdf3a3effea5783a3c4c2140e677577666428d44ed9d474a0b3a4c9943f8440816040516115b5919061446a565b60405180910390a150565b60008073ffffffffffffffffffffffffffffffffffffffff16606860003373ffffffffffffffffffffffffffffffffffffffff1673ffffffffffffffffffffffffffffffffffffffff16815260200190815260200160002060009054906101000a900473ffffffffffffffffffffffffffffffffffffffff1673ffffffffffffffffffffffffffffffffffffffff161415611690576040517f08c379a00000000000000000000000000000000000000000000000000000000081526004016116879061471b565b60405180910390fd5b73__$26c8ee7675adcd4387514ebc7646e15ffa$__63db50e575606b60008661ffff1661ffff168152602001908152602001600020606960009054906101000a900473ffffffffffffffffffffffffffffffffffffffff168b8b8b8b8b6040518863ffffffff1660e01b815260040161170f97969594939291906147bb565b60006040518083038186803b15801561172757600080fd5b505af415801561173b573d6000803e3d6000fd5b5050505061178f888888888080601f016020809104026020016040519081016040528093929190818152602001838380828437600081840152601f19601f8201169050808301925050505050505087612776565b905081801561179c575080155b156117d3576040517fd27b44a900000000000000000000000000000000000000000000000000000000815260040160405180910390fd5b979650505050505050565b6117e66126f8565b6117f06000612d6f565b565b6117fa6126f8565b6000606760009054906101000a900473ffffffffffffffffffffffffffffffffffffffff16905081606760006101000a81548173ffffffffffffffffffffffffffffffffffffffff021916908373ffffffffffffffffffffffffffffffffffffffff1602179055508173ffffffffffffffffffffffffffffffffffffffff168173ffffffffffffffffffffffffffffffffffffffff167f90cc2f570a6eb594b1580ea3e41247d2d73a55281889e86bd4ec2fc29c7e62d660405160405180910390a35050565b606560009054906101000a900473ffffffffffffffffffffffffffffffffffffffff1681565b6118ee6126f8565b80606960006101000a81548173ffffffffffffffffffffffffffffffffffffffff021916908373ffffffffffffffffffffffffffffffffffffffff1602179055507f5fe6aabf4e790843df43ae0e22b58620066fb389295bedc06a92df6c3b28777d606960009054906101000a900473ffffffffffffffffffffffffffffffffffffffff16604051611980919061446a565b60405180910390a150565b6000603360009054906101000a900473ffffffffffffffffffffffffffffffffffffffff16905090565b6119bd6126f8565b73__$26c8ee7675adcd4387514ebc7646e15ffa$__63512ce0f2606b60008a61ffff1661ffff168152602001908152602001600020898989898989896040518963ffffffff1660e01b8152600401611a1c9897969594939291906149a3565b60006040518083038186803b158015611a3457600080fd5b505af4158015611a48573d6000803e3d6000fd5b5050505050505050505050565b600080600083806020019051810190611a6e91906134df565b925092509250611a7c612e35565b81606660006101000a81548173ffffffffffffffffffffffffffffffffffffffff021916908373ffffffffffffffffffffffffffffffffffffffff16021790555080606760006101000a81548173ffffffffffffffffffffffffffffffffffffffff021916908373ffffffffffffffffffffffffffffffffffffffff160217905550611b0783612674565b611b0f612e8e565b8173ffffffffffffffffffffffffffffffffffffffff168373ffffffffffffffffffffffffffffffffffffffff163373ffffffffffffffffffffffffffffffffffffffff167f34d3b96a088381c6843a1f9d94d251afa88f83cc7a0d17fc23a7057506a3fc6d84604051611b83919061446a565b60405180910390a450505050565b611b996126f8565b818190508484905014611bd8576040517f74f4d53700000000000000000000000000000000000000000000000000000000815260040160405180910390fd5b60005b848490508161ffff161015611cc65782828261ffff16818110611c0157611c006150f6565b5b9050602002016020810190611c1691906137be565b606b600087878561ffff16818110611c3157611c306150f6565b5b9050602002016020810190611c4691906138bd565b61ffff1661ffff16815260200190815260200160002060000160008873ffffffffffffffffffffffffffffffffffffffff1673ffffffffffffffffffffffffffffffffffffffff16815260200190815260200160002060006101000a81548160ff0219169083151502179055508080611cbe90614ff5565b915050611bdb565b50611cd0856109bf565b611cde57611cdd856112aa565b5b7f4dcd99505817a4d3e4d3f751a4a49739ec38cb0f83319ff1224a3b289597e86c8585858585604051611d15959493929190614485565b60405180910390a15050505050565b60006060600073ffffffffffffffffffffffffffffffffffffffff16606860003373ffffffffffffffffffffffffffffffffffffffff1673ffffffffffffffffffffffffffffffffffffffff16815260200190815260200160002060009054906101000a900473ffffffffffffffffffffffffffffffffffffffff1673ffffffffffffffffffffffffffffffffffffffff161415611df7576040517f08c379a0000000000000000000000000000000000000000000000000000000008152600401611dee9061471b565b60405180910390fd5b73__$26c8ee7675adcd4387514ebc7646e15ffa$__63db50e575606b60008761ffff1661ffff168152602001908152602001600020606960009054906101000a900473ffffffffffffffffffffffffffffffffffffffff168c8c8c8c8c6040518863ffffffff1660e01b8152600401611e7697969594939291906147bb565b60006040518083038186803b158015611e8e57600080fd5b505af4158015611ea2573d6000803e3d6000fd5b50505050611ef6898989898080601f016020809104026020016040519081016040528093929190818152602001838380828437600081840152601f19601f8201169050808301925050505050505088612a6b565b8092508193505050828015611f09575081155b15611f40576040517fd27b44a900000000000000000000000000000000000000000000000000000000815260040160405180910390fd5b97509795505050505050565b6000606560009054906101000a900473ffffffffffffffffffffffffffffffffffffffff16905090565b606060008267ffffffffffffffff811115611f9457611f93615125565b5b604051908082528060200260200182016040528015611fc25781602001602082028036833780820191505090505b509150600080606860008773ffffffffffffffffffffffffffffffffffffffff1673ffffffffffffffffffffffffffffffffffffffff16815260200190815260200160002060009054906101000a900473ffffffffffffffffffffffffffffffffffffffff1690505b600073ffffffffffffffffffffffffffffffffffffffff168173ffffffffffffffffffffffffffffffffffffffff16141580156120955750600173ffffffffffffffffffffffffffffffffffffffff168173ffffffffffffffffffffffffffffffffffffffff1614155b80156120a057508482105b1561216857808483815181106120b9576120b86150f6565b5b602002602001019073ffffffffffffffffffffffffffffffffffffffff16908173ffffffffffffffffffffffffffffffffffffffff1681525050606860008273ffffffffffffffffffffffffffffffffffffffff1673ffffffffffffffffffffffffffffffffffffffff16815260200190815260200160002060009054906101000a900473ffffffffffffffffffffffffffffffffffffffff169050818061216090615020565b92505061202b565b80925081845250509250929050565b606760009054906101000a900473ffffffffffffffffffffffffffffffffffffffff1681565b6121a56126f8565b600073ffffffffffffffffffffffffffffffffffffffff168173ffffffffffffffffffffffffffffffffffffffff161415801561220f5750600173ffffffffffffffffffffffffffffffffffffffff168173ffffffffffffffffffffffffffffffffffffffff1614155b61224e576040517f08c379a00000000000000000000000000000000000000000000000000000000081526004016122459061479b565b60405180910390fd5b8073ffffffffffffffffffffffffffffffffffffffff16606860008473ffffffffffffffffffffffffffffffffffffffff1673ffffffffffffffffffffffffffffffffffffffff16815260200190815260200160002060009054906101000a900473ffffffffffffffffffffffffffffffffffffffff1673ffffffffffffffffffffffffffffffffffffffff161461231b576040517f08c379a0000000000000000000000000000000000000000000000000000000008152600401612312906146bb565b60405180910390fd5b606860008273ffffffffffffffffffffffffffffffffffffffff1673ffffffffffffffffffffffffffffffffffffffff16815260200190815260200160002060009054906101000a900473ffffffffffffffffffffffffffffffffffffffff16606860008473ffffffffffffffffffffffffffffffffffffffff1673ffffffffffffffffffffffffffffffffffffffff16815260200190815260200160002060006101000a81548173ffffffffffffffffffffffffffffffffffffffff021916908373ffffffffffffffffffffffffffffffffffffffff1602179055506000606860008373ffffffffffffffffffffffffffffffffffffffff1673ffffffffffffffffffffffffffffffffffffffff16815260200190815260200160002060006101000a81548173ffffffffffffffffffffffffffffffffffffffff021916908373ffffffffffffffffffffffffffffffffffffffff1602179055507faab4fa2b463f581b2b32cb3b7e3b704b9ce37cc209b5fb4d77e593ace4054276816040516124a6919061446a565b60405180910390a15050565b6124ba6126f8565b600073ffffffffffffffffffffffffffffffffffffffff168173ffffffffffffffffffffffffffffffffffffffff16146125d7578073ffffffffffffffffffffffffffffffffffffffff166301ffc9a77fe6d7a83a000000000000000000000000000000000000000000000000000000006040518263ffffffff1660e01b815260040161254791906146a0565b60206040518083038186803b15801561255f57600080fd5b505afa158015612573573d6000803e3d6000fd5b505050506040513d601f19601f8201168201806040525081019061259791906137eb565b6125d6576040517f08c379a00000000000000000000000000000000000000000000000000000000081526004016125cd9061473b565b60405180910390fd5b5b80606560006101000a81548173ffffffffffffffffffffffffffffffffffffffff021916908373ffffffffffffffffffffffffffffffffffffffff1602179055507f1151116914515bc0891ff9047a6cb32cf902546f83066499bcf8ba33d2353fa2606560009054906101000a900473ffffffffffffffffffffffffffffffffffffffff16604051612669919061446a565b60405180910390a150565b61267c6126f8565b600073ffffffffffffffffffffffffffffffffffffffff168173ffffffffffffffffffffffffffffffffffffffff1614156126ec576040517f08c379a00000000000000000000000000000000000000000000000000000000081526004016126e3906146db565b60405180910390fd5b6126f581612d6f565b50565b612700612fad565b73ffffffffffffffffffffffffffffffffffffffff1661271e61198b565b73ffffffffffffffffffffffffffffffffffffffff1614612774576040517f08c379a000000000000000000000000000000000000000000000000000000000815260040161276b906146fb565b60405180910390fd5b565b60008073ffffffffffffffffffffffffffffffffffffffff16606560009054906101000a900473ffffffffffffffffffffffffffffffffffffffff1673ffffffffffffffffffffffffffffffffffffffff16146128a857606560009054906101000a900473ffffffffffffffffffffffffffffffffffffffff1673ffffffffffffffffffffffffffffffffffffffff166375f0bb528686868660008060008060006040518060400160405280600281526020017f307800000000000000000000000000000000000000000000000000000000000081525060006040518c63ffffffff1660e01b81526004016128759b9a99989796959493929190614543565b600060405180830381600087803b15801561288f57600080fd5b505af11580156128a3573d6000803e3d6000fd5b505050505b606760009054906101000a900473ffffffffffffffffffffffffffffffffffffffff1673ffffffffffffffffffffffffffffffffffffffff1663468721a7868686866040518563ffffffff1660e01b815260040161290994939291906144f7565b602060405180830381600087803b15801561292357600080fd5b505af1158015612937573d6000803e3d6000fd5b505050506040513d601f19601f8201168201806040525081019061295b91906137eb565b9050600073ffffffffffffffffffffffffffffffffffffffff16606560009054906101000a900473ffffffffffffffffffffffffffffffffffffffff1673ffffffffffffffffffffffffffffffffffffffff1614612a6357606560009054906101000a900473ffffffffffffffffffffffffffffffffffffffff1673ffffffffffffffffffffffffffffffffffffffff1663932713687f3078000000000000000000000000000000000000000000000000000000000000836040518363ffffffff1660e01b8152600401612a30929190614677565b600060405180830381600087803b158015612a4a57600080fd5b505af1158015612a5e573d6000803e3d6000fd5b505050505b949350505050565b60006060600073ffffffffffffffffffffffffffffffffffffffff16606560009054906101000a900473ffffffffffffffffffffffffffffffffffffffff1673ffffffffffffffffffffffffffffffffffffffff1614612ba057606560009054906101000a900473ffffffffffffffffffffffffffffffffffffffff1673ffffffffffffffffffffffffffffffffffffffff166375f0bb528787878760008060008060006040518060400160405280600281526020017f307800000000000000000000000000000000000000000000000000000000000081525060006040518c63ffffffff1660e01b8152600401612b6d9b9a99989796959493929190614543565b600060405180830381600087803b158015612b8757600080fd5b505af1158015612b9b573d6000803e3d6000fd5b505050505b606760009054906101000a900473ffffffffffffffffffffffffffffffffffffffff1673ffffffffffffffffffffffffffffffffffffffff16635229073f878787876040518563ffffffff1660e01b8152600401612c0194939291906144f7565b600060405180830381600087803b158015612c1b57600080fd5b505af1158015612c2f573d6000803e3d6000fd5b505050506040513d6000823e3d601f19601f82011682018060405250810190612c589190613818565b8092508193505050600073ffffffffffffffffffffffffffffffffffffffff16606560009054906101000a900473ffffffffffffffffffffffffffffffffffffffff1673ffffffffffffffffffffffffffffffffffffffff1614612d6657606560009054906101000a900473ffffffffffffffffffffffffffffffffffffffff1673ffffffffffffffffffffffffffffffffffffffff1663932713687f3078000000000000000000000000000000000000000000000000000000000000846040518363ffffffff1660e01b8152600401612d33929190614677565b600060405180830381600087803b158015612d4d57600080fd5b505af1158015612d61573d6000803e3d6000fd5b505050505b94509492505050565b6000603360009054906101000a900473ffffffffffffffffffffffffffffffffffffffff16905081603360006101000a81548173ffffffffffffffffffffffffffffffffffffffff021916908373ffffffffffffffffffffffffffffffffffffffff1602179055508173ffffffffffffffffffffffffffffffffffffffff168173ffffffffffffffffffffffffffffffffffffffff167f8be0079c531659141344cd1fd0a4f28419497f9722a3daafe3b4186f6b6457e060405160405180910390a35050565b600060019054906101000a900460ff16612e84576040517f08c379a0000000000000000000000000000000000000000000000000000000008152600401612e7b9061477b565b60405180910390fd5b612e8c612fb5565b565b600073ffffffffffffffffffffffffffffffffffffffff1660686000600173ffffffffffffffffffffffffffffffffffffffff1673ffffffffffffffffffffffffffffffffffffffff16815260200190815260200160002060009054906101000a900473ffffffffffffffffffffffffffffffffffffffff1673ffffffffffffffffffffffffffffffffffffffff1614612f2b57612f2a615069565b5b600160686000600173ffffffffffffffffffffffffffffffffffffffff1673ffffffffffffffffffffffffffffffffffffffff16815260200190815260200160002060006101000a81548173ffffffffffffffffffffffffffffffffffffffff021916908373ffffffffffffffffffffffffffffffffffffffff160217905550565b600033905090565b600060019054906101000a900460ff16613004576040517f08c379a0000000000000000000000000000000000000000000000000000000008152600401612ffb9061477b565b60405180910390fd5b61301461300f612fad565b612d6f565b565b600061302961302484614b7a565b614b55565b9050808382526020820190508285602086028201111561304c5761304b615168565b5b60005b8581101561309a57813567ffffffffffffffff8111156130725761307161515e565b5b80860161307f89826133c3565b8552602085019450602084019350505060018101905061304f565b5050509392505050565b60006130b76130b284614ba6565b614b55565b9050828152602081018484840111156130d3576130d261516d565b5b6130de848285614f82565b509392505050565b60006130f96130f484614ba6565b614b55565b9050828152602081018484840111156131155761311461516d565b5b613120848285614f91565b509392505050565b60008135905061313781615376565b92915050565b60008151905061314c8161538d565b92915050565b60008083601f8401126131685761316761515e565b5b8235905067ffffffffffffffff81111561318557613184615159565b5b6020830191508360208202830111156131a1576131a0615168565b5b9250929050565b60008083601f8401126131be576131bd61515e565b5b8235905067ffffffffffffffff8111156131db576131da615159565b5b6020830191508360208202830111156131f7576131f6615168565b5b9250929050565b600082601f8301126132135761321261515e565b5b8135613223848260208601613016565b91505092915050565b60008083601f8401126132425761324161515e565b5b8235905067ffffffffffffffff81111561325f5761325e615159565b5b60208301915083602082028301111561327b5761327a615168565b5b9250929050565b60008083601f8401126132985761329761515e565b5b8235905067ffffffffffffffff8111156132b5576132b4615159565b5b6020830191508360208202830111156132d1576132d0615168565b5b9250929050565b60008083601f8401126132ee576132ed61515e565b5b8235905067ffffffffffffffff81111561330b5761330a615159565b5b60208301915083602082028301111561332757613326615168565b5b9250929050565b60008135905061333d816153a4565b92915050565b600081519050613352816153a4565b92915050565b600081359050613367816153bb565b92915050565b60008083601f8401126133835761338261515e565b5b8235905067ffffffffffffffff8111156133a05761339f615159565b5b6020830191508360018202830111156133bc576133bb615168565b5b9250929050565b600082601f8301126133d8576133d761515e565b5b81356133e88482602086016130a4565b91505092915050565b600082601f8301126134065761340561515e565b5b81516134168482602086016130e6565b91505092915050565b60008135905061342e816153d2565b92915050565b600081359050613443816153e2565b92915050565b600081359050613458816153f2565b92915050565b60008135905061346d81615402565b92915050565b60008135905061348281615412565b92915050565b60008135905061349781615429565b92915050565b6000813590506134ac81615440565b92915050565b6000602082840312156134c8576134c761517c565b5b60006134d684828501613128565b91505092915050565b6000806000606084860312156134f8576134f761517c565b5b60006135068682870161313d565b93505060206135178682870161313d565b92505060406135288682870161313d565b9150509250925092565b600080604083850312156135495761354861517c565b5b600061355785828601613128565b925050602061356885828601613128565b9150509250929050565b60008060008060006060868803121561358e5761358d61517c565b5b600061359c88828901613128565b955050602086013567ffffffffffffffff8111156135bd576135bc615172565b5b6135c9888289016132d8565b9450945050604086013567ffffffffffffffff8111156135ec576135eb615172565b5b6135f888828901613152565b92509250509295509295909350565b6000806040838503121561361e5761361d61517c565b5b600061362c85828601613128565b925050602061363d85828601613473565b9150509250929050565b6000806040838503121561365e5761365d61517c565b5b600061366c85828601613128565b925050602061367d85828601613488565b9150509250929050565b6000806000806000608086880312156136a3576136a261517c565b5b60006136b188828901613128565b95505060206136c288828901613488565b945050604086013567ffffffffffffffff8111156136e3576136e2615172565b5b6136ef8882890161336d565b9350935050606061370288828901613449565b9150509295509295909350565b600080600080600080600060c0888a03121561372e5761372d61517c565b5b600061373c8a828b01613128565b975050602061374d8a828b01613488565b965050604088013567ffffffffffffffff81111561376e5761376d615172565b5b61377a8a828b0161336d565b9550955050606061378d8a828b01613449565b935050608061379e8a828b01613473565b92505060a06137af8a828b0161332e565b91505092959891949750929550565b6000602082840312156137d4576137d361517c565b5b60006137e28482850161332e565b91505092915050565b6000602082840312156138015761380061517c565b5b600061380f84828501613343565b91505092915050565b6000806040838503121561382f5761382e61517c565b5b600061383d85828601613343565b925050602083015167ffffffffffffffff81111561385e5761385d615172565b5b61386a858286016133f1565b9150509250929050565b60006020828403121561388a5761388961517c565b5b600082013567ffffffffffffffff8111156138a8576138a7615172565b5b6138b4848285016133c3565b91505092915050565b6000602082840312156138d3576138d261517c565b5b60006138e184828501613473565b91505092915050565b600080604083850312156139015761390061517c565b5b600061390f85828601613473565b925050602061392085828601613128565b9150509250929050565b6000806000606084860312156139435761394261517c565b5b600061395186828701613473565b935050602061396286828701613128565b925050604061397386828701613358565b9150509250925092565b60008060008060008060008060008060006101008c8e0312156139a3576139a261517c565b5b60006139b18e828f01613473565b9b505060206139c28e828f01613128565b9a505060406139d38e828f01613358565b99505060608c013567ffffffffffffffff8111156139f4576139f3615172565b5b613a008e828f01613152565b985098505060808c013567ffffffffffffffff811115613a2357613a22615172565b5b613a2f8e828f01613282565b965096505060a08c013567ffffffffffffffff811115613a5257613a51615172565b5b613a5e8e828f0161322c565b945094505060c08c013567ffffffffffffffff811115613a8157613a80615172565b5b613a8d8e828f016131fe565b92505060e0613a9e8e828f01613434565b9150509295989b509295989b9093969950565b60008060008060808587031215613acb57613aca61517c565b5b6000613ad987828801613473565b9450506020613aea87828801613128565b9350506040613afb87828801613358565b9250506060613b0c87828801613434565b91505092959194509250565b600080600080600080600060c0888a031215613b3757613b3661517c565b5b6000613b458a828b01613473565b9750506020613b568a828b01613128565b9650506040613b678a828b01613358565b9550506060613b788a828b01613488565b9450506080613b898a828b0161345e565b93505060a088013567ffffffffffffffff811115613baa57613ba9615172565b5b613bb68a828b016131a8565b925092505092959891949750929550565b60008060008060008060008060e0898b031215613be757613be661517c565b5b6000613bf58b828c01613473565b9850506020613c068b828c01613128565b9750506040613c178b828c01613358565b9650506060613c288b828c01613488565b9550506080613c398b828c0161345e565b94505060a0613c4a8b828c0161341f565b93505060c089013567ffffffffffffffff811115613c6b57613c6a615172565b5b613c778b828c0161336d565b92509250509295985092959890939650565b60008060008060808587031215613ca357613ca261517c565b5b6000613cb187828801613473565b9450506020613cc287828801613128565b9350506040613cd387828801613358565b9250506060613ce48782880161349d565b91505092959194509250565b600080600060608486031215613d0957613d0861517c565b5b6000613d1786828701613473565b9350506020613d2886828701613128565b9250506040613d3986828701613434565b9150509250925092565b6000613d4f8383613e0c565b60208301905092915050565b6000613d678383614153565b60208301905092915050565b6000613d7f8383614171565b60208301905092915050565b6000613d988484846141da565b90509392505050565b6000613dad8383614240565b905092915050565b6000613dc18383614288565b60208301905092915050565b6000613dd983836142d3565b60208301905092915050565b6000613df18383614410565b60208301905092915050565b613e0681614e31565b82525050565b613e1581614e1f565b82525050565b613e2481614e1f565b82525050565b613e3381614e1f565b82525050565b6000613e4482614c29565b613e4e8185614ca5565b9350613e5983614bd7565b8060005b83811015613e8a578151613e718882613d43565b9750613e7c83614c4a565b925050600181019050613e5d565b5085935050505092915050565b6000613ea38385614cb6565b9350613eae82614be7565b8060005b85811015613ee757613ec48284614d60565b613ece8882613d5b565b9750613ed983614c57565b925050600181019050613eb2565b5085925050509392505050565b6000613f008385614cc7565b9350613f0b82614be7565b8060005b85811015613f4457613f218284614d60565b613f2b8882613d73565b9750613f3683614c57565b925050600181019050613f0f565b5085925050509392505050565b6000613f5d8385614cd8565b935083602084028501613f6f84614bf1565b8060005b87811015613fb5578484038952613f8a8284614d77565b613f95868284613d8b565b9550613fa084614c64565b935060208b019a505050600181019050613f73565b50829750879450505050509392505050565b6000613fd282614c34565b613fdc8185614cd8565b935083602082028501613fee85614bfb565b8060005b8581101561402a578484038952815161400b8582613da1565b945061401683614c71565b925060208a01995050600181019050613ff2565b50829750879550505050505092915050565b60006140488385614ce9565b935061405382614c0b565b8060005b8581101561408c576140698284614dda565b6140738882613db5565b975061407e83614c7e565b925050600181019050614057565b5085925050509392505050565b60006140a58385614cfa565b93506140b082614c15565b8060005b858110156140e9576140c68284614df1565b6140d08882613dcd565b97506140db83614c8b565b9250506001810190506140b4565b5085925050509392505050565b60006141028385614d0b565b935061410d82614c1f565b8060005b85811015614146576141238284614e08565b61412d8882613de5565b975061413883614c98565b925050600181019050614111565b5085925050509392505050565b61415c81614e43565b82525050565b61416b81614e43565b82525050565b61417a81614e43565b82525050565b61418981614e4f565b82525050565b61419881614e59565b82525050565b6141a781614e59565b82525050565b60006141b98385614d2d565b93506141c6838584614f82565b6141cf83615181565b840190509392505050565b60006141e68385614d3e565b93506141f3838584614f82565b6141fc83615181565b840190509392505050565b600061421282614c3f565b61421c8185614d1c565b935061422c818560208601614f91565b61423581615181565b840191505092915050565b600061424b82614c3f565b6142558185614d3e565b9350614265818560208601614f91565b61426e81615181565b840191505092915050565b61428281614f16565b82525050565b61429181614f16565b82525050565b6142a081614f28565b82525050565b6142af81614f3a565b82525050565b6142be81614f3a565b82525050565b6142cd81614f4c565b82525050565b6142dc81614f4c565b82525050565b6142eb81614f5e565b82525050565b60006142fe601783614d4f565b915061430982615192565b602082019050919050565b6000614321602683614d4f565b915061432c826151bb565b604082019050919050565b6000614344602083614d4f565b915061434f8261520a565b602082019050919050565b6000614367601583614d4f565b915061437282615233565b602082019050919050565b600061438a602083614d4f565b91506143958261525c565b602082019050919050565b60006143ad601683614d4f565b91506143b882615285565b602082019050919050565b60006143d0602b83614d4f565b91506143db826152ae565b604082019050919050565b60006143f3600e83614d4f565b91506143fe826152fd565b602082019050919050565b8082525050565b61441981614ed1565b82525050565b61442881614ed1565b82525050565b61443781614ed1565b82525050565b61444681614eff565b82525050565b61445581614eff565b82525050565b61446481614f70565b82525050565b600060208201905061447f6000830184613e1b565b92915050565b600060608201905061449a6000830188613e1b565b81810360208301526144ad8186886140f6565b905081810360408301526144c2818486613e97565b90509695505050505050565b60006040820190506144e36000830185613e1b565b6144f0602083018461441f565b9392505050565b600060808201905061450c6000830187613e1b565b614519602083018661443d565b818103604083015261452b8185614207565b905061453a60608301846142a6565b95945050505050565b600061016082019050614559600083018e613e1b565b614566602083018d61443d565b8181036040830152614578818c614207565b9050614587606083018b6142a6565b614594608083018a6142e2565b6145a160a08301896142e2565b6145ae60c08301886142e2565b6145bb60e0830187613e1b565b6145c9610100830186613dfd565b8181036101208301526145dc8185614207565b90506145ec610140830184613e1b565b9c9b505050505050505050505050565b600060408201905081810360008301526146168185613e39565b90506146256020830184613e1b565b9392505050565b60006020820190506146416000830184614162565b92915050565b600060408201905061465c6000830185614162565b818103602083015261466e8184614207565b90509392505050565b600060408201905061468c6000830185614180565b6146996020830184614162565b9392505050565b60006020820190506146b5600083018461418f565b92915050565b600060208201905081810360008301526146d4816142f1565b9050919050565b600060208201905081810360008301526146f481614314565b9050919050565b6000602082019050818103600083015261471481614337565b9050919050565b600060208201905081810360008301526147348161435a565b9050919050565b600060208201905081810360008301526147548161437d565b9050919050565b60006020820190508181036000830152614774816143a0565b9050919050565b60006020820190508181036000830152614794816143c3565b9050919050565b600060208201905081810360008301526147b4816143e6565b9050919050565b600060c0820190506147d0600083018a614409565b6147dd6020830189613e2a565b6147ea6040830188613e2a565b6147f7606083018761444c565b818103608083015261480a8185876141ad565b905061481960a08301846142b5565b98975050505050505050565b600060608201905061483a6000830186614409565b614847602083018561442e565b6148546040830184613e2a565b949350505050565b60006080820190506148716000830187614409565b61487e602083018661442e565b61488b6040830185613e2a565b614898606083018461419e565b95945050505050565b6000610120820190506148b7600083018f614409565b6148c4602083018e61442e565b6148d1604083018d613e2a565b6148de606083018c61419e565b81810360808301526148f1818a8c613ef4565b905081810360a083015261490681888a614099565b905081810360c083015261491b81868861403c565b905081810360e083015261492f8185613fc7565b905061493f610100830184614297565b9d9c50505050505050505050505050565b600060a0820190506149656000830188614409565b614972602083018761442e565b61497f6040830186613e2a565b61498c606083018561419e565b6149996080830184614297565b9695505050505050565b600060e0820190506149b8600083018b614409565b6149c5602083018a61442e565b6149d26040830189613e2a565b6149df606083018861419e565b6149ec608083018761444c565b6149f960a08301866142c4565b81810360c0830152614a0c818486613f51565b90509998505050505050505050565b600061010082019050614a31600083018c614409565b614a3e602083018b61442e565b614a4b604083018a613e2a565b614a58606083018961419e565b614a65608083018861444c565b614a7260a08301876142c4565b614a7f60c0830186614279565b81810360e0830152614a928184866141ad565b90509a9950505050505050505050565b600060a082019050614ab76000830188614409565b614ac4602083018761442e565b614ad16040830186613e2a565b614ade606083018561419e565b614aeb608083018461445b565b9695505050505050565b6000608082019050614b0a6000830187614409565b614b17602083018661442e565b614b246040830185613e2a565b614b316060830184614297565b95945050505050565b6000602082019050614b4f600083018461441f565b92915050565b6000614b5f614b70565b9050614b6b8282614fc4565b919050565b6000604051905090565b600067ffffffffffffffff821115614b9557614b94615125565b5b602082029050602081019050919050565b600067ffffffffffffffff821115614bc157614bc0615125565b5b614bca82615181565b9050602081019050919050565b6000819050602082019050919050565b6000819050919050565b6000819050919050565b6000819050602082019050919050565b6000819050919050565b6000819050919050565b6000819050919050565b600081519050919050565b600081519050919050565b600081519050919050565b6000602082019050919050565b6000602082019050919050565b6000602082019050919050565b6000602082019050919050565b6000602082019050919050565b6000602082019050919050565b6000602082019050919050565b600082825260208201905092915050565b600082825260208201905092915050565b600082825260208201905092915050565b600082825260208201905092915050565b600082825260208201905092915050565b600082825260208201905092915050565b600082825260208201905092915050565b600082825260208201905092915050565b600082825260208201905092915050565b600082825260208201905092915050565b600082825260208201905092915050565b6000614d6f602084018461332e565b905092915050565b60008083356001602003843603038112614d9457614d93615177565b5b83810192508235915060208301925067ffffffffffffffff821115614dbc57614dbb615154565b5b600182023603841315614dd257614dd1615163565b5b509250929050565b6000614de9602084018461341f565b905092915050565b6000614e00602084018461345e565b905092915050565b6000614e176020840184613473565b905092915050565b6000614e2a82614edf565b9050919050565b6000614e3c82614edf565b9050919050565b60008115159050919050565b6000819050919050565b60007fffffffff0000000000000000000000000000000000000000000000000000000082169050919050565b6000819050614e9382615326565b919050565b6000819050614ea68261533a565b919050565b6000819050614eb98261534e565b919050565b6000819050614ecc82615362565b919050565b600061ffff82169050919050565b600073ffffffffffffffffffffffffffffffffffffffff82169050919050565b6000819050919050565b600060ff82169050919050565b6000614f2182614e85565b9050919050565b6000614f3382614e98565b9050919050565b6000614f4582614eab565b9050919050565b6000614f5782614ebe565b9050919050565b6000614f6982614eff565b9050919050565b6000614f7b82614f09565b9050919050565b82818337600083830152505050565b60005b83811015614faf578082015181840152602081019050614f94565b83811115614fbe576000848401525b50505050565b614fcd82615181565b810181811067ffffffffffffffff82111715614fec57614feb615125565b5b80604052505050565b600061500082614ed1565b915061ffff82141561501557615014615098565b5b600182019050919050565b600061502b82614eff565b91507fffffffffffffffffffffffffffffffffffffffffffffffffffffffffffffffff82141561505e5761505d615098565b5b600182019050919050565b7f4e487b7100000000000000000000000000000000000000000000000000000000600052600160045260246000fd5b7f4e487b7100000000000000000000000000000000000000000000000000000000600052601160045260246000fd5b7f4e487b7100000000000000000000000000000000000000000000000000000000600052602160045260246000fd5b7f4e487b7100000000000000000000000000000000000000000000000000000000600052603260045260246000fd5b7f4e487b7100000000000000000000000000000000000000000000000000000000600052604160045260246000fd5b600080fd5b600080fd5b600080fd5b600080fd5b600080fd5b600080fd5b600080fd5b600080fd5b600080fd5b6000601f19601f8301169050919050565b7f4d6f64756c6520616c72656164792064697361626c6564000000000000000000600082015250565b7f4f776e61626c653a206e6577206f776e657220697320746865207a65726f206160008201527f6464726573730000000000000000000000000000000000000000000000000000602082015250565b7f4f776e61626c653a2063616c6c6572206973206e6f7420746865206f776e6572600082015250565b7f4d6f64756c65206e6f7420617574686f72697a65640000000000000000000000600082015250565b7f477561726420646f6573206e6f7420696d706c656d656e742049455243313635600082015250565b7f4d6f64756c6520616c726561647920656e61626c656400000000000000000000600082015250565b7f496e697469616c697a61626c653a20636f6e7472616374206973206e6f74206960008201527f6e697469616c697a696e67000000000000000000000000000000000000000000602082015250565b7f496e76616c6964206d6f64756c65000000000000000000000000000000000000600082015250565b60048110615337576153366150c7565b5b50565b6004811061534b5761534a6150c7565b5b50565b6002811061535f5761535e6150c7565b5b50565b60038110615373576153726150c7565b5b50565b61537f81614e1f565b811461538a57600080fd5b50565b61539681614e31565b81146153a157600080fd5b50565b6153ad81614e43565b81146153b857600080fd5b50565b6153c481614e59565b81146153cf57600080fd5b50565b600481106153df57600080fd5b50565b600481106153ef57600080fd5b50565b600281106153ff57600080fd5b50565b6003811061540f57600080fd5b50565b61541b81614ed1565b811461542657600080fd5b50565b61543281614eff565b811461543d57600080fd5b50565b61544981614f09565b811461545457600080fd5b5056fea2646970667358221220c402d857501438e868ebf18b2da89bd6c6479bb5a22e56700b173c7c7095673364736f6c63430008060033",
  "linkReferences": {
    "contracts/Permissions.sol": {
      "Permissions": [
        {
          "length": 20,
          "start": 4310
        },
        {
          "length": 20,
          "start": 4617
        },
        {
          "length": 20,
          "start": 4768
        },
        {
          "length": 20,
          "start": 5197
        },
        {
          "length": 20,
          "start": 5348
        },
        {
          "length": 20,
          "start": 5499
        },
        {
          "length": 20,
          "start": 5671
        },
        {
          "length": 20,
          "start": 6034
        },
        {
          "length": 20,
          "start": 6385
        },
        {
          "length": 20,
          "start": 6733
        },
        {
          "length": 20,
          "start": 7125
        },
        {
          "length": 20,
          "start": 8260
        },
        {
          "length": 20,
          "start": 9073
        },
        {
          "length": 20,
          "start": 10155
        }
      ]
    }
  },
  "deployedLinkReferences": {
    "contracts/Permissions.sol": {
      "Permissions": [
        {
          "length": 20,
          "start": 1828
        },
        {
          "length": 20,
          "start": 2135
        },
        {
          "length": 20,
          "start": 2286
        },
        {
          "length": 20,
          "start": 2715
        },
        {
          "length": 20,
          "start": 2866
        },
        {
          "length": 20,
          "start": 3017
        },
        {
          "length": 20,
          "start": 3189
        },
        {
          "length": 20,
          "start": 3552
        },
        {
          "length": 20,
          "start": 3903
        },
        {
          "length": 20,
          "start": 4251
        },
        {
          "length": 20,
          "start": 4643
        },
        {
          "length": 20,
          "start": 5778
        },
        {
          "length": 20,
          "start": 6591
        },
        {
          "length": 20,
          "start": 7673
        }
      ]
    }
  }
}